{
  "_format": "hh-sol-artifact-1",
  "contractName": "ActionNFTRare",
  "sourceName": "contracts/ActionNFTRare.sol",
  "abi": [
    {
      "inputs": [
        {
          "internalType": "address payable",
          "name": "_beneficiary",
          "type": "address"
        },
        {
          "internalType": "uint256",
          "name": "_bidPrice",
          "type": "uint256"
        }
      ],
      "stateMutability": "nonpayable",
      "type": "constructor"
    },
    {
      "anonymous": false,
      "inputs": [
        {
          "indexed": true,
          "internalType": "address",
          "name": "owner",
          "type": "address"
        },
        {
          "indexed": true,
          "internalType": "address",
          "name": "approved",
          "type": "address"
        },
        {
          "indexed": true,
          "internalType": "uint256",
          "name": "tokenId",
          "type": "uint256"
        }
      ],
      "name": "Approval",
      "type": "event"
    },
    {
      "anonymous": false,
      "inputs": [
        {
          "indexed": true,
          "internalType": "address",
          "name": "owner",
          "type": "address"
        },
        {
          "indexed": true,
          "internalType": "address",
          "name": "operator",
          "type": "address"
        },
        {
          "indexed": false,
          "internalType": "bool",
          "name": "approved",
          "type": "bool"
        }
      ],
      "name": "ApprovalForAll",
      "type": "event"
    },
    {
      "anonymous": false,
      "inputs": [
        {
          "indexed": true,
          "internalType": "address",
          "name": "from",
          "type": "address"
        },
        {
          "indexed": true,
          "internalType": "address",
          "name": "to",
          "type": "address"
        },
        {
          "indexed": true,
          "internalType": "uint256",
          "name": "tokenId",
          "type": "uint256"
        }
      ],
      "name": "Transfer",
      "type": "event"
    },
    {
      "stateMutability": "payable",
      "type": "fallback"
    },
    {
      "inputs": [
        {
          "internalType": "address",
          "name": "to",
          "type": "address"
        },
        {
          "internalType": "uint256",
          "name": "tokenId",
          "type": "uint256"
        }
      ],
      "name": "approve",
      "outputs": [],
      "stateMutability": "nonpayable",
      "type": "function"
    },
    {
      "inputs": [],
      "name": "auctionEndTime",
      "outputs": [
        {
          "internalType": "uint256",
          "name": "",
          "type": "uint256"
        }
      ],
      "stateMutability": "view",
      "type": "function"
    },
    {
      "inputs": [],
      "name": "auctionEnded",
      "outputs": [
        {
          "internalType": "bool",
          "name": "",
          "type": "bool"
        }
      ],
      "stateMutability": "view",
      "type": "function"
    },
    {
      "inputs": [
        {
          "internalType": "address",
          "name": "owner",
          "type": "address"
        }
      ],
      "name": "balanceOf",
      "outputs": [
        {
          "internalType": "uint256",
          "name": "",
          "type": "uint256"
        }
      ],
      "stateMutability": "view",
      "type": "function"
    },
    {
      "inputs": [],
      "name": "bidPrice",
      "outputs": [
        {
          "internalType": "uint256",
          "name": "",
          "type": "uint256"
        }
      ],
      "stateMutability": "view",
      "type": "function"
    },
    {
      "inputs": [],
      "name": "bidRare",
      "outputs": [],
      "stateMutability": "payable",
      "type": "function"
    },
    {
      "inputs": [
        {
          "internalType": "address",
          "name": "",
          "type": "address"
        }
      ],
      "name": "bids",
      "outputs": [
        {
          "internalType": "uint256",
          "name": "",
          "type": "uint256"
        }
      ],
      "stateMutability": "view",
      "type": "function"
    },
    {
      "inputs": [
        {
          "internalType": "uint256",
          "name": "tokenId",
          "type": "uint256"
        }
      ],
      "name": "getApproved",
      "outputs": [
        {
          "internalType": "address",
          "name": "",
          "type": "address"
        }
      ],
      "stateMutability": "view",
      "type": "function"
    },
    {
      "inputs": [
        {
          "internalType": "address",
          "name": "owner",
          "type": "address"
        },
        {
          "internalType": "address",
          "name": "operator",
          "type": "address"
        }
      ],
      "name": "isApprovedForAll",
      "outputs": [
        {
          "internalType": "bool",
          "name": "",
          "type": "bool"
        }
      ],
      "stateMutability": "view",
      "type": "function"
    },
    {
      "inputs": [
        {
          "internalType": "address",
          "name": "winner",
          "type": "address"
        }
      ],
      "name": "isTopBidder",
      "outputs": [
        {
          "internalType": "bool",
          "name": "",
          "type": "bool"
        }
      ],
      "stateMutability": "view",
      "type": "function"
    },
    {
      "inputs": [],
      "name": "lastBidTime",
      "outputs": [
        {
          "internalType": "uint256",
          "name": "",
          "type": "uint256"
        }
      ],
      "stateMutability": "view",
      "type": "function"
    },
    {
      "inputs": [],
      "name": "name",
      "outputs": [
        {
          "internalType": "string",
          "name": "",
          "type": "string"
        }
      ],
      "stateMutability": "view",
      "type": "function"
    },
    {
      "inputs": [
        {
          "internalType": "uint256",
          "name": "tokenId",
          "type": "uint256"
        }
      ],
      "name": "ownerOf",
      "outputs": [
        {
          "internalType": "address",
          "name": "",
          "type": "address"
        }
      ],
      "stateMutability": "view",
      "type": "function"
    },
    {
      "inputs": [
        {
          "internalType": "address",
          "name": "from",
          "type": "address"
        },
        {
          "internalType": "address",
          "name": "to",
          "type": "address"
        },
        {
          "internalType": "uint256",
          "name": "tokenId",
          "type": "uint256"
        }
      ],
      "name": "safeTransferFrom",
      "outputs": [],
      "stateMutability": "nonpayable",
      "type": "function"
    },
    {
      "inputs": [
        {
          "internalType": "address",
          "name": "from",
          "type": "address"
        },
        {
          "internalType": "address",
          "name": "to",
          "type": "address"
        },
        {
          "internalType": "uint256",
          "name": "tokenId",
          "type": "uint256"
        },
        {
          "internalType": "bytes",
          "name": "_data",
          "type": "bytes"
        }
      ],
      "name": "safeTransferFrom",
      "outputs": [],
      "stateMutability": "nonpayable",
      "type": "function"
    },
    {
      "inputs": [
        {
          "internalType": "address",
          "name": "operator",
          "type": "address"
        },
        {
          "internalType": "bool",
          "name": "approved",
          "type": "bool"
        }
      ],
      "name": "setApprovalForAll",
      "outputs": [],
      "stateMutability": "nonpayable",
      "type": "function"
    },
    {
      "inputs": [],
      "name": "setAuctionEnded",
      "outputs": [],
      "stateMutability": "nonpayable",
      "type": "function"
    },
    {
      "inputs": [
        {
          "internalType": "string",
          "name": "_newUri",
          "type": "string"
        }
      ],
      "name": "setDefaultMetadata",
      "outputs": [],
      "stateMutability": "nonpayable",
      "type": "function"
    },
    {
      "inputs": [
        {
          "internalType": "uint256",
          "name": "_tokenId",
          "type": "uint256"
        },
        {
          "internalType": "string",
          "name": "_newUri",
          "type": "string"
        }
      ],
      "name": "setTokenUri",
      "outputs": [],
      "stateMutability": "nonpayable",
      "type": "function"
    },
    {
      "inputs": [
        {
          "internalType": "bytes4",
          "name": "interfaceId",
          "type": "bytes4"
        }
      ],
      "name": "supportsInterface",
      "outputs": [
        {
          "internalType": "bool",
          "name": "",
          "type": "bool"
        }
      ],
      "stateMutability": "view",
      "type": "function"
    },
    {
      "inputs": [],
      "name": "symbol",
      "outputs": [
        {
          "internalType": "string",
          "name": "",
          "type": "string"
        }
      ],
      "stateMutability": "view",
      "type": "function"
    },
    {
      "inputs": [
        {
          "internalType": "uint256",
          "name": "tokenId",
          "type": "uint256"
        }
      ],
      "name": "tokenURI",
      "outputs": [
        {
          "internalType": "string",
          "name": "",
          "type": "string"
        }
      ],
      "stateMutability": "view",
      "type": "function"
    },
    {
      "inputs": [
        {
          "internalType": "uint256",
          "name": "",
          "type": "uint256"
        }
      ],
      "name": "topBidders",
      "outputs": [
        {
          "internalType": "uint256",
          "name": "balance",
          "type": "uint256"
        },
        {
          "internalType": "address",
          "name": "addr",
          "type": "address"
        }
      ],
      "stateMutability": "view",
      "type": "function"
    },
    {
      "inputs": [
        {
          "internalType": "address",
          "name": "from",
          "type": "address"
        },
        {
          "internalType": "address",
          "name": "to",
          "type": "address"
        },
        {
          "internalType": "uint256",
          "name": "tokenId",
          "type": "uint256"
        }
      ],
      "name": "transferFrom",
      "outputs": [],
      "stateMutability": "nonpayable",
      "type": "function"
    },
    {
      "inputs": [],
      "name": "treasuryBalance",
      "outputs": [
        {
          "internalType": "uint256",
          "name": "",
          "type": "uint256"
        }
      ],
      "stateMutability": "view",
      "type": "function"
    },
    {
      "inputs": [
        {
          "internalType": "address payable",
          "name": "_newBeneficiary",
          "type": "address"
        }
      ],
      "name": "updateBeneficiary",
      "outputs": [],
      "stateMutability": "nonpayable",
      "type": "function"
    },
    {
      "inputs": [],
      "name": "withdraw",
      "outputs": [],
      "stateMutability": "nonpayable",
      "type": "function"
    },
    {
      "inputs": [],
      "name": "withdraw_dao",
      "outputs": [],
      "stateMutability": "nonpayable",
      "type": "function"
    },
    {
      "stateMutability": "payable",
      "type": "receive"
    }
  ],
  "bytecode": "0x60806040526000601460006101000a81548160ff0219169083151502179055503480156200002c57600080fd5b506040516200371638038062003716833981810160405281019062000052919062000220565b6040518060400160405280601681526020017f50414344414f20414354494f4e204e46542052415245000000000000000000008152506040518060400160405280600b81526020017f5041432d41312d524152450000000000000000000000000000000000000000008152508160009080519060200190620000d692919062000142565b508060019080519060200190620000ef92919062000142565b50505081600660006101000a81548173ffffffffffffffffffffffffffffffffffffffff021916908373ffffffffffffffffffffffffffffffffffffffff16021790555080600781905550505062000343565b8280546200015090620002a5565b90600052602060002090601f016020900481019282620001745760008555620001c0565b82601f106200018f57805160ff1916838001178555620001c0565b82800160010185558215620001c0579182015b82811115620001bf578251825591602001919060010190620001a2565b5b509050620001cf9190620001d3565b5090565b5b80821115620001ee576000816000905550600101620001d4565b5090565b60008151905062000203816200030f565b92915050565b6000815190506200021a8162000329565b92915050565b600080604083850312156200023a57620002396200030a565b5b60006200024a85828601620001f2565b92505060206200025d8582860162000209565b9150509250929050565b600062000274826200027b565b9050919050565b600073ffffffffffffffffffffffffffffffffffffffff82169050919050565b6000819050919050565b60006002820490506001821680620002be57607f821691505b60208210811415620002d557620002d4620002db565b5b50919050565b7f4e487b7100000000000000000000000000000000000000000000000000000000600052602260045260246000fd5b600080fd5b6200031a8162000267565b81146200032657600080fd5b50565b62000334816200029b565b81146200034057600080fd5b50565b6133c380620003536000396000f3fe6080604052600436106101bb5760003560e01c80636352211e116100ec578063b88d4fde1161008a578063e985e9c511610064578063e985e9c5146105f3578063eef51c0a14610630578063f69a57b914610647578063fa4d696914610685576101c2565b8063b88d4fde14610583578063c87b56dd146105ac578063d15ecc09146105e9576101c2565b806380aa3477116100c657806380aa3477146104ed578063864333741461050457806395d89b411461052f578063a22cb4651461055a576101c2565b80636352211e14610448578063642ab4b11461048557806370a08231146104b0576101c2565b8063313dab201161015957806342842e0e1161013357806342842e0e1461038e5780634b449cba146103b757806357f7789e146103e257806362ea82db1461040b576101c2565b8063313dab201461030f57806334ee49ee1461033a5780633ccfd60b14610377576101c2565b8063095ea7b311610195578063095ea7b3146102695780630aaffd2a1461029257806319afe473146102bb57806323b872dd146102e6576101c2565b806301ffc9a7146101c457806306fdde0314610201578063081812fc1461022c576101c2565b366101c257005b005b3480156101d057600080fd5b506101eb60048036038101906101e69190612424565b6106ae565b6040516101f89190612895565b60405180910390f35b34801561020d57600080fd5b50610216610790565b60405161022391906128b0565b60405180910390f35b34801561023857600080fd5b50610253600480360381019061024e91906124c7565b610822565b604051610260919061282e565b60405180910390f35b34801561027557600080fd5b50610290600480360381019061028b91906123e4565b6108a7565b005b34801561029e57600080fd5b506102b960048036038101906102b49190612261565b6109bf565b005b3480156102c757600080fd5b506102d0610a5d565b6040516102dd9190612a92565b60405180910390f35b3480156102f257600080fd5b5061030d600480360381019061030891906122ce565b610a63565b005b34801561031b57600080fd5b50610324610ac3565b6040516103319190612a92565b60405180910390f35b34801561034657600080fd5b50610361600480360381019061035c9190612234565b610ac9565b60405161036e9190612895565b60405180910390f35b34801561038357600080fd5b5061038c610b71565b005b34801561039a57600080fd5b506103b560048036038101906103b091906122ce565b610bc8565b005b3480156103c357600080fd5b506103cc610be8565b6040516103d99190612a92565b60405180910390f35b3480156103ee57600080fd5b50610409600480360381019061040491906124f4565b610bee565b005b34801561041757600080fd5b50610432600480360381019061042d9190612234565b610c4c565b60405161043f9190612a92565b60405180910390f35b34801561045457600080fd5b5061046f600480360381019061046a91906124c7565b610c64565b60405161047c919061282e565b60405180910390f35b34801561049157600080fd5b5061049a610d16565b6040516104a79190612a92565b60405180910390f35b3480156104bc57600080fd5b506104d760048036038101906104d29190612234565b610d1c565b6040516104e49190612a92565b60405180910390f35b3480156104f957600080fd5b50610502610dd4565b005b34801561051057600080fd5b50610519610eb7565b6040516105269190612895565b60405180910390f35b34801561053b57600080fd5b50610544610eca565b60405161055191906128b0565b60405180910390f35b34801561056657600080fd5b50610581600480360381019061057c91906123a4565b610f5c565b005b34801561058f57600080fd5b506105aa60048036038101906105a59190612321565b6110dd565b005b3480156105b857600080fd5b506105d360048036038101906105ce91906124c7565b61113f565b6040516105e091906128b0565b60405180910390f35b6105f16111e6565b005b3480156105ff57600080fd5b5061061a6004803603810190610615919061228e565b6112ae565b6040516106279190612895565b60405180910390f35b34801561063c57600080fd5b50610645611342565b005b34801561065357600080fd5b5061066e600480360381019061066991906124c7565b6113b7565b60405161067c929190612aad565b60405180910390f35b34801561069157600080fd5b506106ac60048036038101906106a7919061247e565b611401565b005b60007f80ac58cd000000000000000000000000000000000000000000000000000000007bffffffffffffffffffffffffffffffffffffffffffffffffffffffff1916827bffffffffffffffffffffffffffffffffffffffffffffffffffffffff1916148061077957507f5b5e139f000000000000000000000000000000000000000000000000000000007bffffffffffffffffffffffffffffffffffffffffffffffffffffffff1916827bffffffffffffffffffffffffffffffffffffffffffffffffffffffff1916145b8061078957506107888261145e565b5b9050919050565b60606000805461079f90612d4d565b80601f01602080910402602001604051908101604052809291908181526020018280546107cb90612d4d565b80156108185780601f106107ed57610100808354040283529160200191610818565b820191906000526020600020905b8154815290600101906020018083116107fb57829003601f168201915b5050505050905090565b600061082d826114c8565b61086c576040517f08c379a0000000000000000000000000000000000000000000000000000000008152600401610863906129f2565b60405180910390fd5b6004600083815260200190815260200160002060009054906101000a900473ffffffffffffffffffffffffffffffffffffffff169050919050565b60006108b282610c64565b90508073ffffffffffffffffffffffffffffffffffffffff168373ffffffffffffffffffffffffffffffffffffffff161415610923576040517f08c379a000000000000000000000000000000000000000000000000000000000815260040161091a90612a52565b60405180910390fd5b8073ffffffffffffffffffffffffffffffffffffffff16610942611534565b73ffffffffffffffffffffffffffffffffffffffff16148061097157506109708161096b611534565b6112ae565b5b6109b0576040517f08c379a00000000000000000000000000000000000000000000000000000000081526004016109a790612972565b60405180910390fd5b6109ba838361153c565b505050565b600660009054906101000a900473ffffffffffffffffffffffffffffffffffffffff1673ffffffffffffffffffffffffffffffffffffffff163373ffffffffffffffffffffffffffffffffffffffff1614610a1957600080fd5b80600660006101000a81548173ffffffffffffffffffffffffffffffffffffffff021916908373ffffffffffffffffffffffffffffffffffffffff16021790555050565b60075481565b610a74610a6e611534565b826115f5565b610ab3576040517f08c379a0000000000000000000000000000000000000000000000000000000008152600401610aaa90612a72565b60405180910390fd5b610abe8383836116d3565b505050565b60165481565b600080600090505b6005811015610b66578273ffffffffffffffffffffffffffffffffffffffff16600a8260058110610b0557610b04612eb7565b5b6002020160010160009054906101000a900473ffffffffffffffffffffffffffffffffffffffff1673ffffffffffffffffffffffffffffffffffffffff161415610b53576001915050610b6c565b8080610b5e90612db0565b915050610ad1565b50600090505b919050565b60011515601460009054906101000a900460ff16151514610b9157600080fd5b60001515610b9e33610ac9565b151514610baa57600080fd5b62278d00601554610bbb9190612ba0565b4210610bc657600080fd5b565b610be3838383604051806020016040528060008152506110dd565b505050565b60155481565b600660009054906101000a900473ffffffffffffffffffffffffffffffffffffffff1673ffffffffffffffffffffffffffffffffffffffff163373ffffffffffffffffffffffffffffffffffffffff1614610c4857600080fd5b5050565b60096020528060005260406000206000915090505481565b6000806002600084815260200190815260200160002060009054906101000a900473ffffffffffffffffffffffffffffffffffffffff169050600073ffffffffffffffffffffffffffffffffffffffff168173ffffffffffffffffffffffffffffffffffffffff161415610d0d576040517f08c379a0000000000000000000000000000000000000000000000000000000008152600401610d04906129b2565b60405180910390fd5b80915050919050565b60085481565b60008073ffffffffffffffffffffffffffffffffffffffff168273ffffffffffffffffffffffffffffffffffffffff161415610d8d576040517f08c379a0000000000000000000000000000000000000000000000000000000008152600401610d8490612992565b60405180910390fd5b600360008373ffffffffffffffffffffffffffffffffffffffff1673ffffffffffffffffffffffffffffffffffffffff168152602001908152602001600020549050919050565b600660009054906101000a900473ffffffffffffffffffffffffffffffffffffffff1673ffffffffffffffffffffffffffffffffffffffff163373ffffffffffffffffffffffffffffffffffffffff1614610e2e57600080fd5b6001601460006101000a81548160ff0219169083151502179055504260158190555060005b6005811015610eb457610ea1600a8260058110610e7357610e72612eb7565b5b6002020160010160009054906101000a900473ffffffffffffffffffffffffffffffffffffffff168261192f565b8080610eac90612db0565b915050610e53565b50565b601460009054906101000a900460ff1681565b606060018054610ed990612d4d565b80601f0160208091040260200160405190810160405280929190818152602001828054610f0590612d4d565b8015610f525780601f10610f2757610100808354040283529160200191610f52565b820191906000526020600020905b815481529060010190602001808311610f3557829003601f168201915b5050505050905090565b610f64611534565b73ffffffffffffffffffffffffffffffffffffffff168273ffffffffffffffffffffffffffffffffffffffff161415610fd2576040517f08c379a0000000000000000000000000000000000000000000000000000000008152600401610fc990612932565b60405180910390fd5b8060056000610fdf611534565b73ffffffffffffffffffffffffffffffffffffffff1673ffffffffffffffffffffffffffffffffffffffff16815260200190815260200160002060008473ffffffffffffffffffffffffffffffffffffffff1673ffffffffffffffffffffffffffffffffffffffff16815260200190815260200160002060006101000a81548160ff0219169083151502179055508173ffffffffffffffffffffffffffffffffffffffff1661108c611534565b73ffffffffffffffffffffffffffffffffffffffff167f17307eab39ab6107e8899845ad3d59bd9653f200f220920489ca2b5937696c31836040516110d19190612895565b60405180910390a35050565b6110ee6110e8611534565b836115f5565b61112d576040517f08c379a000000000000000000000000000000000000000000000000000000000815260040161112490612a72565b60405180910390fd5b6111398484848461194d565b50505050565b606061114a826114c8565b611189576040517f08c379a000000000000000000000000000000000000000000000000000000000815260040161118090612a32565b60405180910390fd5b60006111936119a9565b905060008151116111b357604051806020016040528060008152506111de565b806111bd846119c0565b6040516020016111ce92919061280a565b6040516020818303038152906040525b915050919050565b60001515601460009054906101000a900460ff1615151461120657600080fd5b34600960003373ffffffffffffffffffffffffffffffffffffffff1673ffffffffffffffffffffffffffffffffffffffff16815260200190815260200160002060008282546112559190612ba0565b92505081905550426008819055506112ac33600960003373ffffffffffffffffffffffffffffffffffffffff1673ffffffffffffffffffffffffffffffffffffffff16815260200190815260200160002054611b21565b565b6000600560008473ffffffffffffffffffffffffffffffffffffffff1673ffffffffffffffffffffffffffffffffffffffff16815260200190815260200160002060008373ffffffffffffffffffffffffffffffffffffffff1673ffffffffffffffffffffffffffffffffffffffff16815260200190815260200160002060009054906101000a900460ff16905092915050565b600660009054906101000a900473ffffffffffffffffffffffffffffffffffffffff1673ffffffffffffffffffffffffffffffffffffffff166108fc6016549081150290604051600060405180830381858888f193505050501580156113ac573d6000803e3d6000fd5b506000601681905550565b600a81600581106113c757600080fd5b600202016000915090508060000154908060010160009054906101000a900473ffffffffffffffffffffffffffffffffffffffff16905082565b600660009054906101000a900473ffffffffffffffffffffffffffffffffffffffff1673ffffffffffffffffffffffffffffffffffffffff163373ffffffffffffffffffffffffffffffffffffffff161461145b57600080fd5b50565b60007f01ffc9a7000000000000000000000000000000000000000000000000000000007bffffffffffffffffffffffffffffffffffffffffffffffffffffffff1916827bffffffffffffffffffffffffffffffffffffffffffffffffffffffff1916149050919050565b60008073ffffffffffffffffffffffffffffffffffffffff166002600084815260200190815260200160002060009054906101000a900473ffffffffffffffffffffffffffffffffffffffff1673ffffffffffffffffffffffffffffffffffffffff1614159050919050565b600033905090565b816004600083815260200190815260200160002060006101000a81548173ffffffffffffffffffffffffffffffffffffffff021916908373ffffffffffffffffffffffffffffffffffffffff160217905550808273ffffffffffffffffffffffffffffffffffffffff166115af83610c64565b73ffffffffffffffffffffffffffffffffffffffff167f8c5be1e5ebec7d5bd14f71427d1e84f3dd0314c0f7b2291e5b200ac8c7c3b92560405160405180910390a45050565b6000611600826114c8565b61163f576040517f08c379a000000000000000000000000000000000000000000000000000000000815260040161163690612952565b60405180910390fd5b600061164a83610c64565b90508073ffffffffffffffffffffffffffffffffffffffff168473ffffffffffffffffffffffffffffffffffffffff1614806116b957508373ffffffffffffffffffffffffffffffffffffffff166116a184610822565b73ffffffffffffffffffffffffffffffffffffffff16145b806116ca57506116c981856112ae565b5b91505092915050565b8273ffffffffffffffffffffffffffffffffffffffff166116f382610c64565b73ffffffffffffffffffffffffffffffffffffffff1614611749576040517f08c379a000000000000000000000000000000000000000000000000000000000815260040161174090612a12565b60405180910390fd5b600073ffffffffffffffffffffffffffffffffffffffff168273ffffffffffffffffffffffffffffffffffffffff1614156117b9576040517f08c379a00000000000000000000000000000000000000000000000000000000081526004016117b090612912565b60405180910390fd5b6117c4838383611cfe565b6117cf60008261153c565b6001600360008573ffffffffffffffffffffffffffffffffffffffff1673ffffffffffffffffffffffffffffffffffffffff168152602001908152602001600020600082825461181f9190612c27565b925050819055506001600360008473ffffffffffffffffffffffffffffffffffffffff1673ffffffffffffffffffffffffffffffffffffffff16815260200190815260200160002060008282546118769190612ba0565b92505081905550816002600083815260200190815260200160002060006101000a81548173ffffffffffffffffffffffffffffffffffffffff021916908373ffffffffffffffffffffffffffffffffffffffff160217905550808273ffffffffffffffffffffffffffffffffffffffff168473ffffffffffffffffffffffffffffffffffffffff167fddf252ad1be2c89b69c2b068fc378daa952ba7f163c4a11628f55a4df523b3ef60405160405180910390a4505050565b611949828260405180602001604052806000815250611d03565b5050565b6119588484846116d3565b61196484848484611d5e565b6119a3576040517f08c379a000000000000000000000000000000000000000000000000000000000815260040161199a906128d2565b60405180910390fd5b50505050565b606060405180602001604052806000815250905090565b60606000821415611a08576040518060400160405280600181526020017f30000000000000000000000000000000000000000000000000000000000000008152509050611b1c565b600082905060005b60008214611a3a578080611a2390612db0565b915050600a82611a339190612bf6565b9150611a10565b60008167ffffffffffffffff811115611a5657611a55612ee6565b5b6040519080825280601f01601f191660200182016040528015611a885781602001600182028036833780820191505090505b5090505b60008514611b1557600182611aa19190612c27565b9150600a85611ab09190612df9565b6030611abc9190612ba0565b60f81b818381518110611ad257611ad1612eb7565b5b60200101907effffffffffffffffffffffffffffffffffffffffffffffffffffffffffffff1916908160001a905350600a85611b0e9190612bf6565b9450611a8c565b8093505050505b919050565b60005b6005811015611b685781600a8260058110611b4257611b41612eb7565b5b60020201600001541015611b5557611b68565b8080611b6090612db0565b915050611b24565b600060016005611b789190612c27565b90505b81811115611c7e57600a600182611b929190612c27565b60058110611ba357611ba2612eb7565b5b6002020160000154600a8260058110611bbf57611bbe612eb7565b5b6002020160000181905550600a600182611bd99190612c27565b60058110611bea57611be9612eb7565b5b6002020160010160009054906101000a900473ffffffffffffffffffffffffffffffffffffffff16600a8260058110611c2657611c25612eb7565b5b6002020160010160006101000a81548173ffffffffffffffffffffffffffffffffffffffff021916908373ffffffffffffffffffffffffffffffffffffffff1602179055508080611c7690612d23565b915050611b7b565b5081600a8260058110611c9457611c93612eb7565b5b600202016000018190555082600a8260058110611cb457611cb3612eb7565b5b6002020160010160006101000a81548173ffffffffffffffffffffffffffffffffffffffff021916908373ffffffffffffffffffffffffffffffffffffffff160217905550505050565b505050565b611d0d8383611ef5565b611d1a6000848484611d5e565b611d59576040517f08c379a0000000000000000000000000000000000000000000000000000000008152600401611d50906128d2565b60405180910390fd5b505050565b6000611d7f8473ffffffffffffffffffffffffffffffffffffffff166120c3565b15611ee8578373ffffffffffffffffffffffffffffffffffffffff1663150b7a02611da8611534565b8786866040518563ffffffff1660e01b8152600401611dca9493929190612849565b602060405180830381600087803b158015611de457600080fd5b505af1925050508015611e1557506040513d601f19601f82011682018060405250810190611e129190612451565b60015b611e98573d8060008114611e45576040519150601f19603f3d011682016040523d82523d6000602084013e611e4a565b606091505b50600081511415611e90576040517f08c379a0000000000000000000000000000000000000000000000000000000008152600401611e87906128d2565b60405180910390fd5b805181602001fd5b63150b7a0260e01b7bffffffffffffffffffffffffffffffffffffffffffffffffffffffff1916817bffffffffffffffffffffffffffffffffffffffffffffffffffffffff191614915050611eed565b600190505b949350505050565b600073ffffffffffffffffffffffffffffffffffffffff168273ffffffffffffffffffffffffffffffffffffffff161415611f65576040517f08c379a0000000000000000000000000000000000000000000000000000000008152600401611f5c906129d2565b60405180910390fd5b611f6e816114c8565b15611fae576040517f08c379a0000000000000000000000000000000000000000000000000000000008152600401611fa5906128f2565b60405180910390fd5b611fba60008383611cfe565b6001600360008473ffffffffffffffffffffffffffffffffffffffff1673ffffffffffffffffffffffffffffffffffffffff168152602001908152602001600020600082825461200a9190612ba0565b92505081905550816002600083815260200190815260200160002060006101000a81548173ffffffffffffffffffffffffffffffffffffffff021916908373ffffffffffffffffffffffffffffffffffffffff160217905550808273ffffffffffffffffffffffffffffffffffffffff16600073ffffffffffffffffffffffffffffffffffffffff167fddf252ad1be2c89b69c2b068fc378daa952ba7f163c4a11628f55a4df523b3ef60405160405180910390a45050565b600080823b905060008111915050919050565b60006120e96120e484612afb565b612ad6565b90508281526020810184848401111561210557612104612f1a565b5b612110848285612ce1565b509392505050565b600061212b61212684612b2c565b612ad6565b90508281526020810184848401111561214757612146612f1a565b5b612152848285612ce1565b509392505050565b6000813590506121698161331a565b92915050565b60008135905061217e81613331565b92915050565b60008135905061219381613348565b92915050565b6000813590506121a88161335f565b92915050565b6000815190506121bd8161335f565b92915050565b600082601f8301126121d8576121d7612f15565b5b81356121e88482602086016120d6565b91505092915050565b600082601f83011261220657612205612f15565b5b8135612216848260208601612118565b91505092915050565b60008135905061222e81613376565b92915050565b60006020828403121561224a57612249612f24565b5b60006122588482850161215a565b91505092915050565b60006020828403121561227757612276612f24565b5b60006122858482850161216f565b91505092915050565b600080604083850312156122a5576122a4612f24565b5b60006122b38582860161215a565b92505060206122c48582860161215a565b9150509250929050565b6000806000606084860312156122e7576122e6612f24565b5b60006122f58682870161215a565b93505060206123068682870161215a565b92505060406123178682870161221f565b9150509250925092565b6000806000806080858703121561233b5761233a612f24565b5b60006123498782880161215a565b945050602061235a8782880161215a565b935050604061236b8782880161221f565b925050606085013567ffffffffffffffff81111561238c5761238b612f1f565b5b612398878288016121c3565b91505092959194509250565b600080604083850312156123bb576123ba612f24565b5b60006123c98582860161215a565b92505060206123da85828601612184565b9150509250929050565b600080604083850312156123fb576123fa612f24565b5b60006124098582860161215a565b925050602061241a8582860161221f565b9150509250929050565b60006020828403121561243a57612439612f24565b5b600061244884828501612199565b91505092915050565b60006020828403121561246757612466612f24565b5b6000612475848285016121ae565b91505092915050565b60006020828403121561249457612493612f24565b5b600082013567ffffffffffffffff8111156124b2576124b1612f1f565b5b6124be848285016121f1565b91505092915050565b6000602082840312156124dd576124dc612f24565b5b60006124eb8482850161221f565b91505092915050565b6000806040838503121561250b5761250a612f24565b5b60006125198582860161221f565b925050602083013567ffffffffffffffff81111561253a57612539612f1f565b5b612546858286016121f1565b9150509250929050565b61255981612c5b565b82525050565b61256881612c7f565b82525050565b600061257982612b5d565b6125838185612b73565b9350612593818560208601612cf0565b61259c81612f29565b840191505092915050565b60006125b282612b68565b6125bc8185612b84565b93506125cc818560208601612cf0565b6125d581612f29565b840191505092915050565b60006125eb82612b68565b6125f58185612b95565b9350612605818560208601612cf0565b80840191505092915050565b600061261e603283612b84565b915061262982612f3a565b604082019050919050565b6000612641601c83612b84565b915061264c82612f89565b602082019050919050565b6000612664602483612b84565b915061266f82612fb2565b604082019050919050565b6000612687601983612b84565b915061269282613001565b602082019050919050565b60006126aa602c83612b84565b91506126b58261302a565b604082019050919050565b60006126cd603883612b84565b91506126d882613079565b604082019050919050565b60006126f0602a83612b84565b91506126fb826130c8565b604082019050919050565b6000612713602983612b84565b915061271e82613117565b604082019050919050565b6000612736602083612b84565b915061274182613166565b602082019050919050565b6000612759602c83612b84565b91506127648261318f565b604082019050919050565b600061277c602983612b84565b9150612787826131de565b604082019050919050565b600061279f602f83612b84565b91506127aa8261322d565b604082019050919050565b60006127c2602183612b84565b91506127cd8261327c565b604082019050919050565b60006127e5603183612b84565b91506127f0826132cb565b604082019050919050565b61280481612cd7565b82525050565b600061281682856125e0565b915061282282846125e0565b91508190509392505050565b60006020820190506128436000830184612550565b92915050565b600060808201905061285e6000830187612550565b61286b6020830186612550565b61287860408301856127fb565b818103606083015261288a818461256e565b905095945050505050565b60006020820190506128aa600083018461255f565b92915050565b600060208201905081810360008301526128ca81846125a7565b905092915050565b600060208201905081810360008301526128eb81612611565b9050919050565b6000602082019050818103600083015261290b81612634565b9050919050565b6000602082019050818103600083015261292b81612657565b9050919050565b6000602082019050818103600083015261294b8161267a565b9050919050565b6000602082019050818103600083015261296b8161269d565b9050919050565b6000602082019050818103600083015261298b816126c0565b9050919050565b600060208201905081810360008301526129ab816126e3565b9050919050565b600060208201905081810360008301526129cb81612706565b9050919050565b600060208201905081810360008301526129eb81612729565b9050919050565b60006020820190508181036000830152612a0b8161274c565b9050919050565b60006020820190508181036000830152612a2b8161276f565b9050919050565b60006020820190508181036000830152612a4b81612792565b9050919050565b60006020820190508181036000830152612a6b816127b5565b9050919050565b60006020820190508181036000830152612a8b816127d8565b9050919050565b6000602082019050612aa760008301846127fb565b92915050565b6000604082019050612ac260008301856127fb565b612acf6020830184612550565b9392505050565b6000612ae0612af1565b9050612aec8282612d7f565b919050565b6000604051905090565b600067ffffffffffffffff821115612b1657612b15612ee6565b5b612b1f82612f29565b9050602081019050919050565b600067ffffffffffffffff821115612b4757612b46612ee6565b5b612b5082612f29565b9050602081019050919050565b600081519050919050565b600081519050919050565b600082825260208201905092915050565b600082825260208201905092915050565b600081905092915050565b6000612bab82612cd7565b9150612bb683612cd7565b9250827fffffffffffffffffffffffffffffffffffffffffffffffffffffffffffffffff03821115612beb57612bea612e2a565b5b828201905092915050565b6000612c0182612cd7565b9150612c0c83612cd7565b925082612c1c57612c1b612e59565b5b828204905092915050565b6000612c3282612cd7565b9150612c3d83612cd7565b925082821015612c5057612c4f612e2a565b5b828203905092915050565b6000612c6682612cb7565b9050919050565b6000612c7882612cb7565b9050919050565b60008115159050919050565b60007fffffffff0000000000000000000000000000000000000000000000000000000082169050919050565b600073ffffffffffffffffffffffffffffffffffffffff82169050919050565b6000819050919050565b82818337600083830152505050565b60005b83811015612d0e578082015181840152602081019050612cf3565b83811115612d1d576000848401525b50505050565b6000612d2e82612cd7565b91506000821415612d4257612d41612e2a565b5b600182039050919050565b60006002820490506001821680612d6557607f821691505b60208210811415612d7957612d78612e88565b5b50919050565b612d8882612f29565b810181811067ffffffffffffffff82111715612da757612da6612ee6565b5b80604052505050565b6000612dbb82612cd7565b91507fffffffffffffffffffffffffffffffffffffffffffffffffffffffffffffffff821415612dee57612ded612e2a565b5b600182019050919050565b6000612e0482612cd7565b9150612e0f83612cd7565b925082612e1f57612e1e612e59565b5b828206905092915050565b7f4e487b7100000000000000000000000000000000000000000000000000000000600052601160045260246000fd5b7f4e487b7100000000000000000000000000000000000000000000000000000000600052601260045260246000fd5b7f4e487b7100000000000000000000000000000000000000000000000000000000600052602260045260246000fd5b7f4e487b7100000000000000000000000000000000000000000000000000000000600052603260045260246000fd5b7f4e487b7100000000000000000000000000000000000000000000000000000000600052604160045260246000fd5b600080fd5b600080fd5b600080fd5b600080fd5b6000601f19601f8301169050919050565b7f4552433732313a207472616e7366657220746f206e6f6e20455243373231526560008201527f63656976657220696d706c656d656e7465720000000000000000000000000000602082015250565b7f4552433732313a20746f6b656e20616c7265616479206d696e74656400000000600082015250565b7f4552433732313a207472616e7366657220746f20746865207a65726f2061646460008201527f7265737300000000000000000000000000000000000000000000000000000000602082015250565b7f4552433732313a20617070726f766520746f2063616c6c657200000000000000600082015250565b7f4552433732313a206f70657261746f7220717565727920666f72206e6f6e657860008201527f697374656e7420746f6b656e0000000000000000000000000000000000000000602082015250565b7f4552433732313a20617070726f76652063616c6c6572206973206e6f74206f7760008201527f6e6572206e6f7220617070726f76656420666f7220616c6c0000000000000000602082015250565b7f4552433732313a2062616c616e636520717565727920666f7220746865207a6560008201527f726f206164647265737300000000000000000000000000000000000000000000602082015250565b7f4552433732313a206f776e657220717565727920666f72206e6f6e657869737460008201527f656e7420746f6b656e0000000000000000000000000000000000000000000000602082015250565b7f4552433732313a206d696e7420746f20746865207a65726f2061646472657373600082015250565b7f4552433732313a20617070726f76656420717565727920666f72206e6f6e657860008201527f697374656e7420746f6b656e0000000000000000000000000000000000000000602082015250565b7f4552433732313a207472616e73666572206f6620746f6b656e2074686174206960008201527f73206e6f74206f776e0000000000000000000000000000000000000000000000602082015250565b7f4552433732314d657461646174613a2055524920717565727920666f72206e6f60008201527f6e6578697374656e7420746f6b656e0000000000000000000000000000000000602082015250565b7f4552433732313a20617070726f76616c20746f2063757272656e74206f776e6560008201527f7200000000000000000000000000000000000000000000000000000000000000602082015250565b7f4552433732313a207472616e736665722063616c6c6572206973206e6f74206f60008201527f776e6572206e6f7220617070726f766564000000000000000000000000000000602082015250565b61332381612c5b565b811461332e57600080fd5b50565b61333a81612c6d565b811461334557600080fd5b50565b61335181612c7f565b811461335c57600080fd5b50565b61336881612c8b565b811461337357600080fd5b50565b61337f81612cd7565b811461338a57600080fd5b5056fea2646970667358221220b5679e25a74ee6a508f44e4d486a1e0f046b4164aef930e14a772396d6590e9364736f6c63430008070033",
  "linkReferences": {},
  "deployedLinkReferences": {}
}