{
  "_format": "hh-sol-artifact-1",
  "contractName": "ActionNFT",
  "sourceName": "contracts/ActionNFT.sol",
  "abi": [
    {
      "inputs": [
        {
          "internalType": "address payable",
          "name": "_beneficiary",
          "type": "address"
        },
        {
          "internalType": "uint256",
          "name": "_minPrice",
          "type": "uint256"
        }
      ],
      "stateMutability": "nonpayable",
      "type": "constructor"
    },
    {
      "anonymous": false,
      "inputs": [
        {
          "indexed": true,
          "internalType": "address",
          "name": "owner",
          "type": "address"
        },
        {
          "indexed": true,
          "internalType": "address",
          "name": "approved",
          "type": "address"
        },
        {
          "indexed": true,
          "internalType": "uint256",
          "name": "tokenId",
          "type": "uint256"
        }
      ],
      "name": "Approval",
      "type": "event"
    },
    {
      "anonymous": false,
      "inputs": [
        {
          "indexed": true,
          "internalType": "address",
          "name": "owner",
          "type": "address"
        },
        {
          "indexed": true,
          "internalType": "address",
          "name": "operator",
          "type": "address"
        },
        {
          "indexed": false,
          "internalType": "bool",
          "name": "approved",
          "type": "bool"
        }
      ],
      "name": "ApprovalForAll",
      "type": "event"
    },
    {
      "anonymous": false,
      "inputs": [
        {
          "indexed": true,
          "internalType": "address",
          "name": "from",
          "type": "address"
        },
        {
          "indexed": true,
          "internalType": "address",
          "name": "to",
          "type": "address"
        },
        {
          "indexed": true,
          "internalType": "uint256",
          "name": "tokenId",
          "type": "uint256"
        }
      ],
      "name": "Transfer",
      "type": "event"
    },
    {
      "stateMutability": "payable",
      "type": "fallback"
    },
    {
      "inputs": [
        {
          "internalType": "address",
          "name": "to",
          "type": "address"
        },
        {
          "internalType": "uint256",
          "name": "tokenId",
          "type": "uint256"
        }
      ],
      "name": "approve",
      "outputs": [],
      "stateMutability": "nonpayable",
      "type": "function"
    },
    {
      "inputs": [
        {
          "internalType": "address",
          "name": "owner",
          "type": "address"
        }
      ],
      "name": "balanceOf",
      "outputs": [
        {
          "internalType": "uint256",
          "name": "",
          "type": "uint256"
        }
      ],
      "stateMutability": "view",
      "type": "function"
    },
    {
      "inputs": [],
      "name": "commonPrice",
      "outputs": [
        {
          "internalType": "uint256",
          "name": "",
          "type": "uint256"
        }
      ],
      "stateMutability": "view",
      "type": "function"
    },
    {
      "inputs": [],
      "name": "currentId",
      "outputs": [
        {
          "internalType": "uint256",
          "name": "",
          "type": "uint256"
        }
      ],
      "stateMutability": "view",
      "type": "function"
    },
    {
      "inputs": [
        {
          "internalType": "uint256",
          "name": "tokenId",
          "type": "uint256"
        }
      ],
      "name": "getApproved",
      "outputs": [
        {
          "internalType": "address",
          "name": "",
          "type": "address"
        }
      ],
      "stateMutability": "view",
      "type": "function"
    },
    {
      "inputs": [
        {
          "internalType": "uint256",
          "name": "mint_count",
          "type": "uint256"
        }
      ],
      "name": "getCostMany",
      "outputs": [
        {
          "internalType": "uint256",
          "name": "",
          "type": "uint256"
        },
        {
          "internalType": "uint256",
          "name": "",
          "type": "uint256"
        }
      ],
      "stateMutability": "view",
      "type": "function"
    },
    {
      "inputs": [
        {
          "internalType": "address",
          "name": "owner",
          "type": "address"
        },
        {
          "internalType": "address",
          "name": "operator",
          "type": "address"
        }
      ],
      "name": "isApprovedForAll",
      "outputs": [
        {
          "internalType": "bool",
          "name": "",
          "type": "bool"
        }
      ],
      "stateMutability": "view",
      "type": "function"
    },
    {
      "inputs": [],
      "name": "mintCommon",
      "outputs": [],
      "stateMutability": "payable",
      "type": "function"
    },
    {
      "inputs": [
        {
          "internalType": "uint256",
          "name": "_mint_count",
          "type": "uint256"
        }
      ],
      "name": "mintMany",
      "outputs": [],
      "stateMutability": "payable",
      "type": "function"
    },
    {
      "inputs": [],
      "name": "name",
      "outputs": [
        {
          "internalType": "string",
          "name": "",
          "type": "string"
        }
      ],
      "stateMutability": "view",
      "type": "function"
    },
    {
      "inputs": [
        {
          "internalType": "uint256",
          "name": "start_price",
          "type": "uint256"
        }
      ],
      "name": "nextPrice",
      "outputs": [
        {
          "internalType": "uint256",
          "name": "",
          "type": "uint256"
        }
      ],
      "stateMutability": "view",
      "type": "function"
    },
    {
      "inputs": [
        {
          "internalType": "address",
          "name": "",
          "type": "address"
        }
      ],
      "name": "originalMintCount",
      "outputs": [
        {
          "internalType": "uint256",
          "name": "",
          "type": "uint256"
        }
      ],
      "stateMutability": "view",
      "type": "function"
    },
    {
      "inputs": [
        {
          "internalType": "uint256",
          "name": "tokenId",
          "type": "uint256"
        }
      ],
      "name": "ownerOf",
      "outputs": [
        {
          "internalType": "address",
          "name": "",
          "type": "address"
        }
      ],
      "stateMutability": "view",
      "type": "function"
    },
    {
      "inputs": [],
      "name": "rampRate",
      "outputs": [
        {
          "internalType": "uint256",
          "name": "",
          "type": "uint256"
        }
      ],
      "stateMutability": "view",
      "type": "function"
    },
    {
      "inputs": [
        {
          "internalType": "address",
          "name": "from",
          "type": "address"
        },
        {
          "internalType": "address",
          "name": "to",
          "type": "address"
        },
        {
          "internalType": "uint256",
          "name": "tokenId",
          "type": "uint256"
        }
      ],
      "name": "safeTransferFrom",
      "outputs": [],
      "stateMutability": "nonpayable",
      "type": "function"
    },
    {
      "inputs": [
        {
          "internalType": "address",
          "name": "from",
          "type": "address"
        },
        {
          "internalType": "address",
          "name": "to",
          "type": "address"
        },
        {
          "internalType": "uint256",
          "name": "tokenId",
          "type": "uint256"
        },
        {
          "internalType": "bytes",
          "name": "_data",
          "type": "bytes"
        }
      ],
      "name": "safeTransferFrom",
      "outputs": [],
      "stateMutability": "nonpayable",
      "type": "function"
    },
    {
      "inputs": [
        {
          "internalType": "address",
          "name": "operator",
          "type": "address"
        },
        {
          "internalType": "bool",
          "name": "approved",
          "type": "bool"
        }
      ],
      "name": "setApprovalForAll",
      "outputs": [],
      "stateMutability": "nonpayable",
      "type": "function"
    },
    {
      "inputs": [
        {
          "internalType": "string",
          "name": "_newUri",
          "type": "string"
        }
      ],
      "name": "setDefaultMetadata",
      "outputs": [],
      "stateMutability": "nonpayable",
      "type": "function"
    },
    {
      "inputs": [
        {
          "internalType": "uint256",
          "name": "_tokenId",
          "type": "uint256"
        },
        {
          "internalType": "string",
          "name": "_newUri",
          "type": "string"
        }
      ],
      "name": "setTokenUri",
      "outputs": [],
      "stateMutability": "nonpayable",
      "type": "function"
    },
    {
      "inputs": [
        {
          "internalType": "bytes4",
          "name": "interfaceId",
          "type": "bytes4"
        }
      ],
      "name": "supportsInterface",
      "outputs": [
        {
          "internalType": "bool",
          "name": "",
          "type": "bool"
        }
      ],
      "stateMutability": "view",
      "type": "function"
    },
    {
      "inputs": [],
      "name": "symbol",
      "outputs": [
        {
          "internalType": "string",
          "name": "",
          "type": "string"
        }
      ],
      "stateMutability": "view",
      "type": "function"
    },
    {
      "inputs": [
        {
          "internalType": "uint256",
          "name": "tokenId",
          "type": "uint256"
        }
      ],
      "name": "tokenURI",
      "outputs": [
        {
          "internalType": "string",
          "name": "",
          "type": "string"
        }
      ],
      "stateMutability": "view",
      "type": "function"
    },
    {
      "inputs": [
        {
          "internalType": "address",
          "name": "from",
          "type": "address"
        },
        {
          "internalType": "address",
          "name": "to",
          "type": "address"
        },
        {
          "internalType": "uint256",
          "name": "tokenId",
          "type": "uint256"
        }
      ],
      "name": "transferFrom",
      "outputs": [],
      "stateMutability": "nonpayable",
      "type": "function"
    },
    {
      "inputs": [],
      "name": "treasuryBalance",
      "outputs": [
        {
          "internalType": "uint256",
          "name": "",
          "type": "uint256"
        }
      ],
      "stateMutability": "view",
      "type": "function"
    },
    {
      "inputs": [
        {
          "internalType": "address payable",
          "name": "_newBeneficiary",
          "type": "address"
        }
      ],
      "name": "updateBeneficiary",
      "outputs": [],
      "stateMutability": "nonpayable",
      "type": "function"
    },
    {
      "inputs": [],
      "name": "withdrawTreasury",
      "outputs": [],
      "stateMutability": "nonpayable",
      "type": "function"
    },
    {
      "inputs": [
        {
          "internalType": "address",
          "name": "",
          "type": "address"
        }
      ],
      "name": "withdrawableBalance",
      "outputs": [
        {
          "internalType": "uint256",
          "name": "",
          "type": "uint256"
        }
      ],
      "stateMutability": "view",
      "type": "function"
    },
    {
      "stateMutability": "payable",
      "type": "receive"
    }
  ],
  "bytecode": "0x60806040526710a741a4627800006008553480156200001d57600080fd5b506040516200351538038062003515833981810160405281019062000043919062000211565b6040518060400160405280600d81526020017f50414344414f20414354494f4e000000000000000000000000000000000000008152506040518060400160405280600681526020017f5041432d413100000000000000000000000000000000000000000000000000008152508160009080519060200190620000c792919062000133565b508060019080519060200190620000e092919062000133565b50505081600660006101000a81548173ffffffffffffffffffffffffffffffffffffffff021916908373ffffffffffffffffffffffffffffffffffffffff16021790555080600981905550505062000334565b828054620001419062000296565b90600052602060002090601f016020900481019282620001655760008555620001b1565b82601f106200018057805160ff1916838001178555620001b1565b82800160010185558215620001b1579182015b82811115620001b057825182559160200191906001019062000193565b5b509050620001c09190620001c4565b5090565b5b80821115620001df576000816000905550600101620001c5565b5090565b600081519050620001f48162000300565b92915050565b6000815190506200020b816200031a565b92915050565b600080604083850312156200022b576200022a620002fb565b5b60006200023b85828601620001e3565b92505060206200024e85828601620001fa565b9150509250929050565b600062000265826200026c565b9050919050565b600073ffffffffffffffffffffffffffffffffffffffff82169050919050565b6000819050919050565b60006002820490506001821680620002af57607f821691505b60208210811415620002c657620002c5620002cc565b5b50919050565b7f4e487b7100000000000000000000000000000000000000000000000000000000600052602260045260246000fd5b600080fd5b6200030b8162000258565b81146200031757600080fd5b50565b62000325816200028c565b81146200033157600080fd5b50565b6131d180620003446000396000f3fe6080604052600436106101a05760003560e01c806357f7789e116100ec578063ac9b4d6e1161008a578063e00dd16111610064578063e00dd161146105c5578063e985e9c5146105f0578063eec6e3291461062d578063fa4d69691461066a576101a7565b8063ac9b4d6e14610534578063b88d4fde1461055f578063c87b56dd14610588576101a7565b8063873b036a116100c6578063873b036a146104ab5780638d32895c146104b557806395d89b41146104e0578063a22cb4651461050b576101a7565b806357f7789e146104085780636352211e1461043157806370a082311461046e576101a7565b80630aaffd2a116101595780632821ca71116101335780632821ca7114610339578063313dab201461037657806342842e0e146103a157806353443b60146103ca576101a7565b80630aaffd2a146102d0578063166bab95146102f957806323b872dd14610310576101a7565b806301ffc9a7146101a957806302b62938146101e6578063059513a61461022357806306fdde031461023f578063081812fc1461026a578063095ea7b3146102a7576101a7565b366101a757005b005b3480156101b557600080fd5b506101d060048036038101906101cb9190612202565b610693565b6040516101dd9190612673565b60405180910390f35b3480156101f257600080fd5b5061020d60048036038101906102089190612012565b610775565b60405161021a9190612870565b60405180910390f35b61023d600480360381019061023891906122a5565b61078d565b005b34801561024b57600080fd5b50610254610845565b604051610261919061268e565b60405180910390f35b34801561027657600080fd5b50610291600480360381019061028c91906122a5565b6108d7565b60405161029e919061260c565b60405180910390f35b3480156102b357600080fd5b506102ce60048036038101906102c991906121c2565b61095c565b005b3480156102dc57600080fd5b506102f760048036038101906102f2919061203f565b610a74565b005b34801561030557600080fd5b5061030e610b12565b005b34801561031c57600080fd5b50610337600480360381019061033291906120ac565b610b87565b005b34801561034557600080fd5b50610360600480360381019061035b91906122a5565b610be7565b60405161036d9190612870565b60405180910390f35b34801561038257600080fd5b5061038b610c63565b6040516103989190612870565b60405180910390f35b3480156103ad57600080fd5b506103c860048036038101906103c391906120ac565b610c69565b005b3480156103d657600080fd5b506103f160048036038101906103ec91906122a5565b610c89565b6040516103ff92919061288b565b60405180910390f35b34801561041457600080fd5b5061042f600480360381019061042a91906122d2565b610cdf565b005b34801561043d57600080fd5b50610458600480360381019061045391906122a5565b610d3d565b604051610465919061260c565b60405180910390f35b34801561047a57600080fd5b5061049560048036038101906104909190612012565b610def565b6040516104a29190612870565b60405180910390f35b6104b3610ea7565b005b3480156104c157600080fd5b506104ca610f30565b6040516104d79190612870565b60405180910390f35b3480156104ec57600080fd5b506104f5610f36565b604051610502919061268e565b60405180910390f35b34801561051757600080fd5b50610532600480360381019061052d9190612182565b610fc8565b005b34801561054057600080fd5b50610549611149565b6040516105569190612870565b60405180910390f35b34801561056b57600080fd5b50610586600480360381019061058191906120ff565b61114f565b005b34801561059457600080fd5b506105af60048036038101906105aa91906122a5565b6111b1565b6040516105bc919061268e565b60405180910390f35b3480156105d157600080fd5b506105da611258565b6040516105e79190612870565b60405180910390f35b3480156105fc57600080fd5b506106176004803603810190610612919061206c565b61125e565b6040516106249190612673565b60405180910390f35b34801561063957600080fd5b50610654600480360381019061064f9190612012565b6112f2565b6040516106619190612870565b60405180910390f35b34801561067657600080fd5b50610691600480360381019061068c919061225c565b61130a565b005b60007f80ac58cd000000000000000000000000000000000000000000000000000000007bffffffffffffffffffffffffffffffffffffffffffffffffffffffff1916827bffffffffffffffffffffffffffffffffffffffffffffffffffffffff1916148061075e57507f5b5e139f000000000000000000000000000000000000000000000000000000007bffffffffffffffffffffffffffffffffffffffffffffffffffffffff1916827bffffffffffffffffffffffffffffffffffffffffffffffffffffffff1916145b8061076e575061076d82611367565b5b9050919050565b600c6020528060005260406000206000915090505481565b60008061079983610c89565b91509150813410156107aa57600080fd5b60005b838110156107d0576107bd6113d1565b80806107c890612bbe565b9150506107ad565b5082600a60003373ffffffffffffffffffffffffffffffffffffffff1673ffffffffffffffffffffffffffffffffffffffff1681526020019081526020016000206000828254610820919061297e565b9250508190555061083081610be7565b60098190555061084033346113f9565b505050565b60606000805461085490612b5b565b80601f016020809104026020016040519081016040528092919081815260200182805461088090612b5b565b80156108cd5780601f106108a2576101008083540402835291602001916108cd565b820191906000526020600020905b8154815290600101906020018083116108b057829003601f168201915b5050505050905090565b60006108e282611483565b610921576040517f08c379a0000000000000000000000000000000000000000000000000000000008152600401610918906127d0565b60405180910390fd5b6004600083815260200190815260200160002060009054906101000a900473ffffffffffffffffffffffffffffffffffffffff169050919050565b600061096782610d3d565b90508073ffffffffffffffffffffffffffffffffffffffff168373ffffffffffffffffffffffffffffffffffffffff1614156109d8576040517f08c379a00000000000000000000000000000000000000000000000000000000081526004016109cf90612830565b60405180910390fd5b8073ffffffffffffffffffffffffffffffffffffffff166109f76114ef565b73ffffffffffffffffffffffffffffffffffffffff161480610a265750610a2581610a206114ef565b61125e565b5b610a65576040517f08c379a0000000000000000000000000000000000000000000000000000000008152600401610a5c90612750565b60405180910390fd5b610a6f83836114f7565b505050565b600660009054906101000a900473ffffffffffffffffffffffffffffffffffffffff1673ffffffffffffffffffffffffffffffffffffffff163373ffffffffffffffffffffffffffffffffffffffff1614610ace57600080fd5b80600660006101000a81548173ffffffffffffffffffffffffffffffffffffffff021916908373ffffffffffffffffffffffffffffffffffffffff16021790555050565b600660009054906101000a900473ffffffffffffffffffffffffffffffffffffffff1673ffffffffffffffffffffffffffffffffffffffff166108fc600b549081150290604051600060405180830381858888f19350505050158015610b7c573d6000803e3d6000fd5b506000600b81905550565b610b98610b926114ef565b826115b0565b610bd7576040517f08c379a0000000000000000000000000000000000000000000000000000000008152600401610bce90612850565b60405180910390fd5b610be283838361168e565b505050565b600080670de0b6b3a764000060085484610c019190612a05565b610c0b91906129d4565b9050655af3107a40008382610c209190612a5f565b1015610c3b57655af3107a400083610c38919061297e565b90505b655af3107a40008082610c4e91906129d4565b610c589190612a05565b905080915050919050565b600b5481565b610c848383836040518060200160405280600081525061114f565b505050565b600080600060095490506000600954905060005b85811015610cd157610cae82610be7565b91508183610cbc919061297e565b92508080610cc990612bbe565b915050610c9d565b508181935093505050915091565b600660009054906101000a900473ffffffffffffffffffffffffffffffffffffffff1673ffffffffffffffffffffffffffffffffffffffff163373ffffffffffffffffffffffffffffffffffffffff1614610d3957600080fd5b5050565b6000806002600084815260200190815260200160002060009054906101000a900473ffffffffffffffffffffffffffffffffffffffff169050600073ffffffffffffffffffffffffffffffffffffffff168173ffffffffffffffffffffffffffffffffffffffff161415610de6576040517f08c379a0000000000000000000000000000000000000000000000000000000008152600401610ddd90612790565b60405180910390fd5b80915050919050565b60008073ffffffffffffffffffffffffffffffffffffffff168273ffffffffffffffffffffffffffffffffffffffff161415610e60576040517f08c379a0000000000000000000000000000000000000000000000000000000008152600401610e5790612770565b60405180910390fd5b600360008373ffffffffffffffffffffffffffffffffffffffff1673ffffffffffffffffffffffffffffffffffffffff168152602001908152602001600020549050919050565b600954341015610eb657600080fd5b610ebe6113d1565b610ec9600954610be7565b600981905550610ed933346113f9565b600a60003373ffffffffffffffffffffffffffffffffffffffff1673ffffffffffffffffffffffffffffffffffffffff1681526020019081526020016000206000815480929190610f2990612bbe565b9190505550565b60095481565b606060018054610f4590612b5b565b80601f0160208091040260200160405190810160405280929190818152602001828054610f7190612b5b565b8015610fbe5780601f10610f9357610100808354040283529160200191610fbe565b820191906000526020600020905b815481529060010190602001808311610fa157829003601f168201915b5050505050905090565b610fd06114ef565b73ffffffffffffffffffffffffffffffffffffffff168273ffffffffffffffffffffffffffffffffffffffff16141561103e576040517f08c379a000000000000000000000000000000000000000000000000000000000815260040161103590612710565b60405180910390fd5b806005600061104b6114ef565b73ffffffffffffffffffffffffffffffffffffffff1673ffffffffffffffffffffffffffffffffffffffff16815260200190815260200160002060008473ffffffffffffffffffffffffffffffffffffffff1673ffffffffffffffffffffffffffffffffffffffff16815260200190815260200160002060006101000a81548160ff0219169083151502179055508173ffffffffffffffffffffffffffffffffffffffff166110f86114ef565b73ffffffffffffffffffffffffffffffffffffffff167f17307eab39ab6107e8899845ad3d59bd9653f200f220920489ca2b5937696c318360405161113d9190612673565b60405180910390a35050565b60085481565b61116061115a6114ef565b836115b0565b61119f576040517f08c379a000000000000000000000000000000000000000000000000000000000815260040161119690612850565b60405180910390fd5b6111ab848484846118ea565b50505050565b60606111bc82611483565b6111fb576040517f08c379a00000000000000000000000000000000000000000000000000000000081526004016111f290612810565b60405180910390fd5b6000611205611946565b905060008151116112255760405180602001604052806000815250611250565b8061122f8461195d565b6040516020016112409291906125e8565b6040516020818303038152906040525b915050919050565b60075481565b6000600560008473ffffffffffffffffffffffffffffffffffffffff1673ffffffffffffffffffffffffffffffffffffffff16815260200190815260200160002060008373ffffffffffffffffffffffffffffffffffffffff1673ffffffffffffffffffffffffffffffffffffffff16815260200190815260200160002060009054906101000a900460ff16905092915050565b600a6020528060005260406000206000915090505481565b600660009054906101000a900473ffffffffffffffffffffffffffffffffffffffff1673ffffffffffffffffffffffffffffffffffffffff163373ffffffffffffffffffffffffffffffffffffffff161461136457600080fd5b50565b60007f01ffc9a7000000000000000000000000000000000000000000000000000000007bffffffffffffffffffffffffffffffffffffffffffffffffffffffff1916827bffffffffffffffffffffffffffffffffffffffffffffffffffffffff1916149050919050565b6001600760008282546113e4919061297e565b925050819055506113f733600754611abe565b565b60006064605a3461140a9190612a05565b61141491906129d4565b905080600c60003373ffffffffffffffffffffffffffffffffffffffff1673ffffffffffffffffffffffffffffffffffffffff1681526020019081526020016000206000828254611465919061297e565b9250508190555080346114789190612a5f565b600b81905550505050565b60008073ffffffffffffffffffffffffffffffffffffffff166002600084815260200190815260200160002060009054906101000a900473ffffffffffffffffffffffffffffffffffffffff1673ffffffffffffffffffffffffffffffffffffffff1614159050919050565b600033905090565b816004600083815260200190815260200160002060006101000a81548173ffffffffffffffffffffffffffffffffffffffff021916908373ffffffffffffffffffffffffffffffffffffffff160217905550808273ffffffffffffffffffffffffffffffffffffffff1661156a83610d3d565b73ffffffffffffffffffffffffffffffffffffffff167f8c5be1e5ebec7d5bd14f71427d1e84f3dd0314c0f7b2291e5b200ac8c7c3b92560405160405180910390a45050565b60006115bb82611483565b6115fa576040517f08c379a00000000000000000000000000000000000000000000000000000000081526004016115f190612730565b60405180910390fd5b600061160583610d3d565b90508073ffffffffffffffffffffffffffffffffffffffff168473ffffffffffffffffffffffffffffffffffffffff16148061167457508373ffffffffffffffffffffffffffffffffffffffff1661165c846108d7565b73ffffffffffffffffffffffffffffffffffffffff16145b806116855750611684818561125e565b5b91505092915050565b8273ffffffffffffffffffffffffffffffffffffffff166116ae82610d3d565b73ffffffffffffffffffffffffffffffffffffffff1614611704576040517f08c379a00000000000000000000000000000000000000000000000000000000081526004016116fb906127f0565b60405180910390fd5b600073ffffffffffffffffffffffffffffffffffffffff168273ffffffffffffffffffffffffffffffffffffffff161415611774576040517f08c379a000000000000000000000000000000000000000000000000000000000815260040161176b906126f0565b60405180910390fd5b61177f838383611adc565b61178a6000826114f7565b6001600360008573ffffffffffffffffffffffffffffffffffffffff1673ffffffffffffffffffffffffffffffffffffffff16815260200190815260200160002060008282546117da9190612a5f565b925050819055506001600360008473ffffffffffffffffffffffffffffffffffffffff1673ffffffffffffffffffffffffffffffffffffffff1681526020019081526020016000206000828254611831919061297e565b92505081905550816002600083815260200190815260200160002060006101000a81548173ffffffffffffffffffffffffffffffffffffffff021916908373ffffffffffffffffffffffffffffffffffffffff160217905550808273ffffffffffffffffffffffffffffffffffffffff168473ffffffffffffffffffffffffffffffffffffffff167fddf252ad1be2c89b69c2b068fc378daa952ba7f163c4a11628f55a4df523b3ef60405160405180910390a4505050565b6118f584848461168e565b61190184848484611ae1565b611940576040517f08c379a0000000000000000000000000000000000000000000000000000000008152600401611937906126b0565b60405180910390fd5b50505050565b606060405180602001604052806000815250905090565b606060008214156119a5576040518060400160405280600181526020017f30000000000000000000000000000000000000000000000000000000000000008152509050611ab9565b600082905060005b600082146119d75780806119c090612bbe565b915050600a826119d091906129d4565b91506119ad565b60008167ffffffffffffffff8111156119f3576119f2612cf4565b5b6040519080825280601f01601f191660200182016040528015611a255781602001600182028036833780820191505090505b5090505b60008514611ab257600182611a3e9190612a5f565b9150600a85611a4d9190612c07565b6030611a59919061297e565b60f81b818381518110611a6f57611a6e612cc5565b5b60200101907effffffffffffffffffffffffffffffffffffffffffffffffffffffffffffff1916908160001a905350600a85611aab91906129d4565b9450611a29565b8093505050505b919050565b611ad8828260405180602001604052806000815250611c78565b5050565b505050565b6000611b028473ffffffffffffffffffffffffffffffffffffffff16611cd3565b15611c6b578373ffffffffffffffffffffffffffffffffffffffff1663150b7a02611b2b6114ef565b8786866040518563ffffffff1660e01b8152600401611b4d9493929190612627565b602060405180830381600087803b158015611b6757600080fd5b505af1925050508015611b9857506040513d601f19601f82011682018060405250810190611b95919061222f565b60015b611c1b573d8060008114611bc8576040519150601f19603f3d011682016040523d82523d6000602084013e611bcd565b606091505b50600081511415611c13576040517f08c379a0000000000000000000000000000000000000000000000000000000008152600401611c0a906126b0565b60405180910390fd5b805181602001fd5b63150b7a0260e01b7bffffffffffffffffffffffffffffffffffffffffffffffffffffffff1916817bffffffffffffffffffffffffffffffffffffffffffffffffffffffff191614915050611c70565b600190505b949350505050565b611c828383611ce6565b611c8f6000848484611ae1565b611cce576040517f08c379a0000000000000000000000000000000000000000000000000000000008152600401611cc5906126b0565b60405180910390fd5b505050565b600080823b905060008111915050919050565b600073ffffffffffffffffffffffffffffffffffffffff168273ffffffffffffffffffffffffffffffffffffffff161415611d56576040517f08c379a0000000000000000000000000000000000000000000000000000000008152600401611d4d906127b0565b60405180910390fd5b611d5f81611483565b15611d9f576040517f08c379a0000000000000000000000000000000000000000000000000000000008152600401611d96906126d0565b60405180910390fd5b611dab60008383611adc565b6001600360008473ffffffffffffffffffffffffffffffffffffffff1673ffffffffffffffffffffffffffffffffffffffff1681526020019081526020016000206000828254611dfb919061297e565b92505081905550816002600083815260200190815260200160002060006101000a81548173ffffffffffffffffffffffffffffffffffffffff021916908373ffffffffffffffffffffffffffffffffffffffff160217905550808273ffffffffffffffffffffffffffffffffffffffff16600073ffffffffffffffffffffffffffffffffffffffff167fddf252ad1be2c89b69c2b068fc378daa952ba7f163c4a11628f55a4df523b3ef60405160405180910390a45050565b6000611ec7611ec2846128d9565b6128b4565b905082815260208101848484011115611ee357611ee2612d28565b5b611eee848285612b19565b509392505050565b6000611f09611f048461290a565b6128b4565b905082815260208101848484011115611f2557611f24612d28565b5b611f30848285612b19565b509392505050565b600081359050611f4781613128565b92915050565b600081359050611f5c8161313f565b92915050565b600081359050611f7181613156565b92915050565b600081359050611f868161316d565b92915050565b600081519050611f9b8161316d565b92915050565b600082601f830112611fb657611fb5612d23565b5b8135611fc6848260208601611eb4565b91505092915050565b600082601f830112611fe457611fe3612d23565b5b8135611ff4848260208601611ef6565b91505092915050565b60008135905061200c81613184565b92915050565b60006020828403121561202857612027612d32565b5b600061203684828501611f38565b91505092915050565b60006020828403121561205557612054612d32565b5b600061206384828501611f4d565b91505092915050565b6000806040838503121561208357612082612d32565b5b600061209185828601611f38565b92505060206120a285828601611f38565b9150509250929050565b6000806000606084860312156120c5576120c4612d32565b5b60006120d386828701611f38565b93505060206120e486828701611f38565b92505060406120f586828701611ffd565b9150509250925092565b6000806000806080858703121561211957612118612d32565b5b600061212787828801611f38565b945050602061213887828801611f38565b935050604061214987828801611ffd565b925050606085013567ffffffffffffffff81111561216a57612169612d2d565b5b61217687828801611fa1565b91505092959194509250565b6000806040838503121561219957612198612d32565b5b60006121a785828601611f38565b92505060206121b885828601611f62565b9150509250929050565b600080604083850312156121d9576121d8612d32565b5b60006121e785828601611f38565b92505060206121f885828601611ffd565b9150509250929050565b60006020828403121561221857612217612d32565b5b600061222684828501611f77565b91505092915050565b60006020828403121561224557612244612d32565b5b600061225384828501611f8c565b91505092915050565b60006020828403121561227257612271612d32565b5b600082013567ffffffffffffffff8111156122905761228f612d2d565b5b61229c84828501611fcf565b91505092915050565b6000602082840312156122bb576122ba612d32565b5b60006122c984828501611ffd565b91505092915050565b600080604083850312156122e9576122e8612d32565b5b60006122f785828601611ffd565b925050602083013567ffffffffffffffff81111561231857612317612d2d565b5b61232485828601611fcf565b9150509250929050565b61233781612a93565b82525050565b61234681612ab7565b82525050565b60006123578261293b565b6123618185612951565b9350612371818560208601612b28565b61237a81612d37565b840191505092915050565b600061239082612946565b61239a8185612962565b93506123aa818560208601612b28565b6123b381612d37565b840191505092915050565b60006123c982612946565b6123d38185612973565b93506123e3818560208601612b28565b80840191505092915050565b60006123fc603283612962565b915061240782612d48565b604082019050919050565b600061241f601c83612962565b915061242a82612d97565b602082019050919050565b6000612442602483612962565b915061244d82612dc0565b604082019050919050565b6000612465601983612962565b915061247082612e0f565b602082019050919050565b6000612488602c83612962565b915061249382612e38565b604082019050919050565b60006124ab603883612962565b91506124b682612e87565b604082019050919050565b60006124ce602a83612962565b91506124d982612ed6565b604082019050919050565b60006124f1602983612962565b91506124fc82612f25565b604082019050919050565b6000612514602083612962565b915061251f82612f74565b602082019050919050565b6000612537602c83612962565b915061254282612f9d565b604082019050919050565b600061255a602983612962565b915061256582612fec565b604082019050919050565b600061257d602f83612962565b91506125888261303b565b604082019050919050565b60006125a0602183612962565b91506125ab8261308a565b604082019050919050565b60006125c3603183612962565b91506125ce826130d9565b604082019050919050565b6125e281612b0f565b82525050565b60006125f482856123be565b915061260082846123be565b91508190509392505050565b6000602082019050612621600083018461232e565b92915050565b600060808201905061263c600083018761232e565b612649602083018661232e565b61265660408301856125d9565b8181036060830152612668818461234c565b905095945050505050565b6000602082019050612688600083018461233d565b92915050565b600060208201905081810360008301526126a88184612385565b905092915050565b600060208201905081810360008301526126c9816123ef565b9050919050565b600060208201905081810360008301526126e981612412565b9050919050565b6000602082019050818103600083015261270981612435565b9050919050565b6000602082019050818103600083015261272981612458565b9050919050565b600060208201905081810360008301526127498161247b565b9050919050565b600060208201905081810360008301526127698161249e565b9050919050565b60006020820190508181036000830152612789816124c1565b9050919050565b600060208201905081810360008301526127a9816124e4565b9050919050565b600060208201905081810360008301526127c981612507565b9050919050565b600060208201905081810360008301526127e98161252a565b9050919050565b600060208201905081810360008301526128098161254d565b9050919050565b6000602082019050818103600083015261282981612570565b9050919050565b6000602082019050818103600083015261284981612593565b9050919050565b60006020820190508181036000830152612869816125b6565b9050919050565b600060208201905061288560008301846125d9565b92915050565b60006040820190506128a060008301856125d9565b6128ad60208301846125d9565b9392505050565b60006128be6128cf565b90506128ca8282612b8d565b919050565b6000604051905090565b600067ffffffffffffffff8211156128f4576128f3612cf4565b5b6128fd82612d37565b9050602081019050919050565b600067ffffffffffffffff82111561292557612924612cf4565b5b61292e82612d37565b9050602081019050919050565b600081519050919050565b600081519050919050565b600082825260208201905092915050565b600082825260208201905092915050565b600081905092915050565b600061298982612b0f565b915061299483612b0f565b9250827fffffffffffffffffffffffffffffffffffffffffffffffffffffffffffffffff038211156129c9576129c8612c38565b5b828201905092915050565b60006129df82612b0f565b91506129ea83612b0f565b9250826129fa576129f9612c67565b5b828204905092915050565b6000612a1082612b0f565b9150612a1b83612b0f565b9250817fffffffffffffffffffffffffffffffffffffffffffffffffffffffffffffffff0483118215151615612a5457612a53612c38565b5b828202905092915050565b6000612a6a82612b0f565b9150612a7583612b0f565b925082821015612a8857612a87612c38565b5b828203905092915050565b6000612a9e82612aef565b9050919050565b6000612ab082612aef565b9050919050565b60008115159050919050565b60007fffffffff0000000000000000000000000000000000000000000000000000000082169050919050565b600073ffffffffffffffffffffffffffffffffffffffff82169050919050565b6000819050919050565b82818337600083830152505050565b60005b83811015612b46578082015181840152602081019050612b2b565b83811115612b55576000848401525b50505050565b60006002820490506001821680612b7357607f821691505b60208210811415612b8757612b86612c96565b5b50919050565b612b9682612d37565b810181811067ffffffffffffffff82111715612bb557612bb4612cf4565b5b80604052505050565b6000612bc982612b0f565b91507fffffffffffffffffffffffffffffffffffffffffffffffffffffffffffffffff821415612bfc57612bfb612c38565b5b600182019050919050565b6000612c1282612b0f565b9150612c1d83612b0f565b925082612c2d57612c2c612c67565b5b828206905092915050565b7f4e487b7100000000000000000000000000000000000000000000000000000000600052601160045260246000fd5b7f4e487b7100000000000000000000000000000000000000000000000000000000600052601260045260246000fd5b7f4e487b7100000000000000000000000000000000000000000000000000000000600052602260045260246000fd5b7f4e487b7100000000000000000000000000000000000000000000000000000000600052603260045260246000fd5b7f4e487b7100000000000000000000000000000000000000000000000000000000600052604160045260246000fd5b600080fd5b600080fd5b600080fd5b600080fd5b6000601f19601f8301169050919050565b7f4552433732313a207472616e7366657220746f206e6f6e20455243373231526560008201527f63656976657220696d706c656d656e7465720000000000000000000000000000602082015250565b7f4552433732313a20746f6b656e20616c7265616479206d696e74656400000000600082015250565b7f4552433732313a207472616e7366657220746f20746865207a65726f2061646460008201527f7265737300000000000000000000000000000000000000000000000000000000602082015250565b7f4552433732313a20617070726f766520746f2063616c6c657200000000000000600082015250565b7f4552433732313a206f70657261746f7220717565727920666f72206e6f6e657860008201527f697374656e7420746f6b656e0000000000000000000000000000000000000000602082015250565b7f4552433732313a20617070726f76652063616c6c6572206973206e6f74206f7760008201527f6e6572206e6f7220617070726f76656420666f7220616c6c0000000000000000602082015250565b7f4552433732313a2062616c616e636520717565727920666f7220746865207a6560008201527f726f206164647265737300000000000000000000000000000000000000000000602082015250565b7f4552433732313a206f776e657220717565727920666f72206e6f6e657869737460008201527f656e7420746f6b656e0000000000000000000000000000000000000000000000602082015250565b7f4552433732313a206d696e7420746f20746865207a65726f2061646472657373600082015250565b7f4552433732313a20617070726f76656420717565727920666f72206e6f6e657860008201527f697374656e7420746f6b656e0000000000000000000000000000000000000000602082015250565b7f4552433732313a207472616e73666572206f6620746f6b656e2074686174206960008201527f73206e6f74206f776e0000000000000000000000000000000000000000000000602082015250565b7f4552433732314d657461646174613a2055524920717565727920666f72206e6f60008201527f6e6578697374656e7420746f6b656e0000000000000000000000000000000000602082015250565b7f4552433732313a20617070726f76616c20746f2063757272656e74206f776e6560008201527f7200000000000000000000000000000000000000000000000000000000000000602082015250565b7f4552433732313a207472616e736665722063616c6c6572206973206e6f74206f60008201527f776e6572206e6f7220617070726f766564000000000000000000000000000000602082015250565b61313181612a93565b811461313c57600080fd5b50565b61314881612aa5565b811461315357600080fd5b50565b61315f81612ab7565b811461316a57600080fd5b50565b61317681612ac3565b811461318157600080fd5b50565b61318d81612b0f565b811461319857600080fd5b5056fea26469706673582212208618ad7578e20034fd01f6fdf975e9669b1b9dfbefd7550922ad07c613a8b52064736f6c63430008070033",
  "linkReferences": {},
  "deployedLinkReferences": {}
}